{
  "contractName": "flip",
  "abi": [
    {
      "anonymous": false,
      "inputs": [
        {
          "indexed": true,
          "internalType": "address",
          "name": "_from",
          "type": "address"
        },
        {
          "indexed": false,
          "internalType": "bool",
          "name": "win",
          "type": "bool"
        }
      ],
      "name": "returnWin",
      "type": "event"
    },
    {
      "constant": true,
      "inputs": [],
      "name": "balance",
      "outputs": [
        {
          "internalType": "uint256",
          "name": "",
          "type": "uint256"
        }
      ],
      "payable": false,
      "stateMutability": "view",
      "type": "function"
    },
    {
      "constant": true,
      "inputs": [],
      "name": "owner",
      "outputs": [
        {
          "internalType": "address",
          "name": "",
          "type": "address"
        }
      ],
      "payable": false,
      "stateMutability": "view",
      "type": "function"
    },
    {
      "constant": true,
      "inputs": [],
      "name": "player",
      "outputs": [
        {
          "internalType": "address payable",
          "name": "",
          "type": "address"
        }
      ],
      "payable": false,
      "stateMutability": "view",
      "type": "function"
    },
    {
      "constant": false,
      "inputs": [],
      "name": "playGame",
      "outputs": [
        {
          "internalType": "bool",
          "name": "",
          "type": "bool"
        }
      ],
      "payable": true,
      "stateMutability": "payable",
      "type": "function"
    },
    {
      "constant": false,
      "inputs": [],
      "name": "withdrawAll",
      "outputs": [
        {
          "internalType": "uint256",
          "name": "",
          "type": "uint256"
        }
      ],
      "payable": true,
      "stateMutability": "payable",
      "type": "function"
    }
  ],
  "bytecode": "0x6080604052336000806101000a81548173ffffffffffffffffffffffffffffffffffffffff021916908373ffffffffffffffffffffffffffffffffffffffff160217905550610429806100536000396000f3fe60806040526004361061004a5760003560e01c806348db5f891461004f578063853828b6146100a65780638da5cb5b146100c4578063af8997351461011b578063b69ef8a81461013d575b600080fd5b34801561005b57600080fd5b50610064610168565b604051808273ffffffffffffffffffffffffffffffffffffffff1673ffffffffffffffffffffffffffffffffffffffff16815260200191505060405180910390f35b6100ae61018e565b6040518082815260200191505060405180910390f35b3480156100d057600080fd5b506100d9610246565b604051808273ffffffffffffffffffffffffffffffffffffffff1673ffffffffffffffffffffffffffffffffffffffff16815260200191505060405180910390f35b61012361026b565b604051808215151515815260200191505060405180910390f35b34801561014957600080fd5b506101526103c8565b6040518082815260200191505060405180910390f35b600260009054906101000a900473ffffffffffffffffffffffffffffffffffffffff1681565b60008060009054906101000a900473ffffffffffffffffffffffffffffffffffffffff1673ffffffffffffffffffffffffffffffffffffffff163373ffffffffffffffffffffffffffffffffffffffff16146101e957600080fd5b6000600154905060006001819055503373ffffffffffffffffffffffffffffffffffffffff166108fc829081150290604051600060405180830381858888f1935050505015801561023e573d6000803e3d6000fd5b508091505090565b6000809054906101000a900473ffffffffffffffffffffffffffffffffffffffff1681565b60008060008034905060028102915033600260006101000a81548173ffffffffffffffffffffffffffffffffffffffff021916908373ffffffffffffffffffffffffffffffffffffffff16021790555080600154106102d3576102cc6103ce565b92506102d8565b600092505b821561035c57600260009054906101000a900473ffffffffffffffffffffffffffffffffffffffff1673ffffffffffffffffffffffffffffffffffffffff166108fc839081150290604051600060405180830381858888f19350505050158015610346573d6000803e3d6000fd5b508060016000828254039250508190555061036d565b806001600082825401925050819055505b3373ffffffffffffffffffffffffffffffffffffffff167f5b23e89677fe86e475e9b12cf38176b7eb81bde48accd1f0ae87a3a0c200498684604051808215151515815260200191505060405180910390a282935050505090565b60015481565b60006001600242816103dc57fe5b0614156103ec57600190506103f1565b600090505b9056fea265627a7a72315820bb0cb9a97f052677ac3e70a7cc4721aa0903dec97c587506cc267eaa717f262964736f6c634300050c0032",
  "source": "pragma solidity 0.5.12;\r\nimport \"./ownable.sol\";\r\n\r\ncontract flip is Ownable {\r\n\r\n  uint public balance; //holds account balance\r\n\r\n  address payable public player; //holds address of the player\r\n\r\n  event returnWin(address indexed _from, bool win);\r\n\r\n  function playGame() public payable returns (bool){\r\n    bool win;\r\n    uint winnings;\r\n\r\n    uint game_stake = msg.value;\r\n    winnings = game_stake *2;\r\n    player = msg.sender ;\r\n\r\n    // get win state\r\n    if (balance>= game_stake)win = getFlip();\r\n    else win=false;\r\n\r\n    // if win transfer winnings to player\r\n    if (win){\r\n      player.transfer(winnings);\r\n      balance -= game_stake;\r\n    }\r\n    else {\r\n        balance += game_stake;\r\n    }\r\n\r\n    emit returnWin(msg.sender, win);\r\n    return win;\r\n  }\r\n\r\n  //empty balance to owner account\r\n  function withdrawAll() public payable onlyOwner returns(uint) {\r\n       uint toTransfer = balance;\r\n       balance = 0;\r\n       msg.sender.transfer(toTransfer);\r\n       return toTransfer;\r\n   }\r\n\r\n  // 50/50 chance will return bool of true or false\r\n  function getFlip() private view returns (bool) {\r\n   if (now % 2 == 1 ) return true;\r\n    else return false;\r\n  }\r\n}\r\n",
  "sourcePath": "C:\\Users\\kira.summers\\ethereum\\flip\\contracts\\flip.sol",
  "compiler": {
    "name": "solc",
    "version": "0.5.12+commit.7709ece9.Emscripten.clang"
  },
  "schemaVersion": "3.0.23",
  "updatedAt": "2020-05-24T13:53:46.188Z",
  "devdoc": {
    "methods": {}
  },
  "userdoc": {
    "methods": {}
  }
}