{
  "contractName": "flip",
  "abi": [
    {
      "constant": true,
      "inputs": [],
      "name": "balance",
      "outputs": [
        {
          "internalType": "uint256",
          "name": "",
          "type": "uint256"
        }
      ],
      "payable": false,
      "stateMutability": "view",
      "type": "function"
    },
    {
      "constant": true,
      "inputs": [],
      "name": "owner",
      "outputs": [
        {
          "internalType": "address",
          "name": "",
          "type": "address"
        }
      ],
      "payable": false,
      "stateMutability": "view",
      "type": "function"
    },
    {
      "constant": true,
      "inputs": [],
      "name": "player",
      "outputs": [
        {
          "internalType": "address payable",
          "name": "",
          "type": "address"
        }
      ],
      "payable": false,
      "stateMutability": "view",
      "type": "function"
    },
    {
      "constant": false,
      "inputs": [
        {
          "internalType": "uint256",
          "name": "game_stake",
          "type": "uint256"
        }
      ],
      "name": "playGame",
      "outputs": [
        {
          "internalType": "bool",
          "name": "",
          "type": "bool"
        }
      ],
      "payable": true,
      "stateMutability": "payable",
      "type": "function"
    },
    {
      "constant": false,
      "inputs": [],
      "name": "withdrawAll",
      "outputs": [
        {
          "internalType": "uint256",
          "name": "",
          "type": "uint256"
        }
      ],
      "payable": true,
      "stateMutability": "payable",
      "type": "function"
    }
  ],
  "bytecode": "0x6080604052336000806101000a81548173ffffffffffffffffffffffffffffffffffffffff021916908373ffffffffffffffffffffffffffffffffffffffff160217905550610405806100536000396000f3fe60806040526004361061004a5760003560e01c806348db5f891461004f5780635873533d146100a6578063853828b6146100ec5780638da5cb5b1461010a578063b69ef8a814610161575b600080fd5b34801561005b57600080fd5b5061006461018c565b604051808273ffffffffffffffffffffffffffffffffffffffff1673ffffffffffffffffffffffffffffffffffffffff16815260200191505060405180910390f35b6100d2600480360360208110156100bc57600080fd5b81019080803590602001909291905050506101b2565b604051808215151515815260200191505060405180910390f35b6100f46102c7565b6040518082815260200191505060405180910390f35b34801561011657600080fd5b5061011f61037f565b604051808273ffffffffffffffffffffffffffffffffffffffff1673ffffffffffffffffffffffffffffffffffffffff16815260200191505060405180910390f35b34801561016d57600080fd5b506101766103a4565b6040518082815260200191505060405180910390f35b600260009054906101000a900473ffffffffffffffffffffffffffffffffffffffff1681565b6000806000600284029050833410156101ca57600080fd5b33600260006101000a81548173ffffffffffffffffffffffffffffffffffffffff021916908373ffffffffffffffffffffffffffffffffffffffff16021790555083600154106102235761021c6103aa565b9150610228565b600091505b81156102ac57600260009054906101000a900473ffffffffffffffffffffffffffffffffffffffff1673ffffffffffffffffffffffffffffffffffffffff166108fc829081150290604051600060405180830381858888f19350505050158015610296573d6000803e3d6000fd5b50836001600082825403925050819055506102bd565b836001600082825401925050819055505b8192505050919050565b60008060009054906101000a900473ffffffffffffffffffffffffffffffffffffffff1673ffffffffffffffffffffffffffffffffffffffff163373ffffffffffffffffffffffffffffffffffffffff161461032257600080fd5b6000600154905060006001819055503373ffffffffffffffffffffffffffffffffffffffff166108fc829081150290604051600060405180830381858888f19350505050158015610377573d6000803e3d6000fd5b508091505090565b6000809054906101000a900473ffffffffffffffffffffffffffffffffffffffff1681565b60015481565b60006001600242816103b857fe5b0614156103c857600190506103cd565b600090505b9056fea265627a7a723158205135701e75d1863efc304d1f138d476bb69d9fcda12647428d0a00fca0cb3f5c64736f6c634300050c0032",
  "source": "pragma solidity 0.5.12;\r\nimport \"./ownable.sol\";\r\n\r\ncontract flip is Ownable {\r\n\r\n  uint public balance; //holds account balance\r\n\r\n  address payable public player; //holds address of the player\r\n\r\n  function playGame(uint game_stake) public payable returns (bool){\r\n    bool win;\r\n    uint winnings = game_stake *2;\r\n\r\n    require(msg.value >= game_stake);\r\n\r\n    player = msg.sender ;\r\n\r\n    // get win state\r\n    if (balance>= game_stake)win = getFlip();\r\n    else win=false;\r\n\r\n    // if win transfer winnings to player\r\n    if (win){\r\n      player.transfer(winnings);\r\n      balance -= game_stake;\r\n    }\r\n    else {\r\n        balance += game_stake;\r\n    }\r\n\r\n    return win;\r\n  }\r\n\r\n  //empty balance to owner account\r\n  function withdrawAll() public payable onlyOwner returns(uint) {\r\n       uint toTransfer = balance;\r\n       balance = 0;\r\n       msg.sender.transfer(toTransfer);\r\n       return toTransfer;\r\n   }\r\n\r\n  // 50/50 chance will return bool of true or false\r\n  function getFlip() private view returns (bool) {\r\n   if (now % 2 == 1 ) return true;\r\n    else return false;\r\n  }\r\n}\r\n",
  "sourcePath": "C:\\Users\\kira.summers\\ethereum\\flip\\contracts\\flip.sol",
  "compiler": {
    "name": "solc",
    "version": "0.5.12+commit.7709ece9.Emscripten.clang"
  },
  "schemaVersion": "3.0.23",
  "updatedAt": "2020-05-24T11:41:02.841Z",
  "networkType": "ethereum",
  "devdoc": {
    "methods": {}
  },
  "userdoc": {
    "methods": {}
  }
}