{
  "contractName": "flip",
  "abi": [
    {
      "constant": true,
      "inputs": [],
      "name": "balance",
      "outputs": [
        {
          "internalType": "uint256",
          "name": "",
          "type": "uint256"
        }
      ],
      "payable": false,
      "stateMutability": "view",
      "type": "function"
    },
    {
      "constant": true,
      "inputs": [],
      "name": "game_stake",
      "outputs": [
        {
          "internalType": "uint256",
          "name": "",
          "type": "uint256"
        }
      ],
      "payable": false,
      "stateMutability": "view",
      "type": "function"
    },
    {
      "constant": true,
      "inputs": [],
      "name": "owner",
      "outputs": [
        {
          "internalType": "address",
          "name": "",
          "type": "address"
        }
      ],
      "payable": false,
      "stateMutability": "view",
      "type": "function"
    },
    {
      "constant": true,
      "inputs": [],
      "name": "player",
      "outputs": [
        {
          "internalType": "address payable",
          "name": "",
          "type": "address"
        }
      ],
      "payable": false,
      "stateMutability": "view",
      "type": "function"
    },
    {
      "constant": false,
      "inputs": [],
      "name": "playGame",
      "outputs": [
        {
          "internalType": "bool",
          "name": "",
          "type": "bool"
        }
      ],
      "payable": true,
      "stateMutability": "payable",
      "type": "function"
    },
    {
      "constant": true,
      "inputs": [],
      "name": "getStake",
      "outputs": [
        {
          "internalType": "uint256",
          "name": "",
          "type": "uint256"
        }
      ],
      "payable": false,
      "stateMutability": "view",
      "type": "function"
    },
    {
      "constant": false,
      "inputs": [
        {
          "internalType": "uint256",
          "name": "newStake",
          "type": "uint256"
        }
      ],
      "name": "setStake",
      "outputs": [],
      "payable": false,
      "stateMutability": "nonpayable",
      "type": "function"
    },
    {
      "constant": false,
      "inputs": [],
      "name": "withdrawAll",
      "outputs": [
        {
          "internalType": "uint256",
          "name": "",
          "type": "uint256"
        }
      ],
      "payable": true,
      "stateMutability": "payable",
      "type": "function"
    }
  ],
  "bytecode": "0x6080604052620f4240600255336000806101000a81548173ffffffffffffffffffffffffffffffffffffffff021916908373ffffffffffffffffffffffffffffffffffffffff1602179055506104c68061005a6000396000f3fe60806040526004361061007b5760003560e01c80638da5cb5b1161004e5780638da5cb5b1461015b578063af899735146101b2578063b69ef8a8146101d4578063fc0e3d90146101ff5761007b565b80631e6c88ba1461008057806335d9db53146100ab57806348db5f89146100e6578063853828b61461013d575b600080fd5b34801561008c57600080fd5b5061009561022a565b6040518082815260200191505060405180910390f35b3480156100b757600080fd5b506100e4600480360360208110156100ce57600080fd5b8101908080359060200190929190505050610230565b005b3480156100f257600080fd5b506100fb61023a565b604051808273ffffffffffffffffffffffffffffffffffffffff1673ffffffffffffffffffffffffffffffffffffffff16815260200191505060405180910390f35b610145610260565b6040518082815260200191505060405180910390f35b34801561016757600080fd5b50610170610318565b604051808273ffffffffffffffffffffffffffffffffffffffff1673ffffffffffffffffffffffffffffffffffffffff16815260200191505060405180910390f35b6101ba61033d565b604051808215151515815260200191505060405180910390f35b3480156101e057600080fd5b506101e961045b565b6040518082815260200191505060405180910390f35b34801561020b57600080fd5b50610214610461565b6040518082815260200191505060405180910390f35b60025481565b8060028190555050565b600360009054906101000a900473ffffffffffffffffffffffffffffffffffffffff1681565b60008060009054906101000a900473ffffffffffffffffffffffffffffffffffffffff1673ffffffffffffffffffffffffffffffffffffffff163373ffffffffffffffffffffffffffffffffffffffff16146102bb57600080fd5b6000600154905060006001819055503373ffffffffffffffffffffffffffffffffffffffff166108fc829081150290604051600060405180830381858888f19350505050158015610310573d6000803e3d6000fd5b508091505090565b6000809054906101000a900473ffffffffffffffffffffffffffffffffffffffff1681565b60006002548034101561034f57600080fd5b6000806002805402905033600360006101000a81548173ffffffffffffffffffffffffffffffffffffffff021916908373ffffffffffffffffffffffffffffffffffffffff160217905550600254600154106103b4576103ad61046b565b91506103b9565b600091505b811561043f57600360009054906101000a900473ffffffffffffffffffffffffffffffffffffffff1673ffffffffffffffffffffffffffffffffffffffff166108fc829081150290604051600060405180830381858888f19350505050158015610427573d6000803e3d6000fd5b50600254600160008282540392505081905550610452565b6002546001600082825401925050819055505b81935050505090565b60015481565b6000600254905090565b600060016002428161047957fe5b061415610489576001905061048e565b600090505b9056fea265627a7a723158203f8926dc6694cecd072045d7bf474ad63b21fe6b0a4eb97088cf9b7866846aac64736f6c634300050c0032",
  "source": "pragma solidity 0.5.12;\r\nimport \"./ownable.sol\";\r\n\r\ncontract flip is Ownable {\r\n\r\n  uint public balance; //holds account balance\r\n  uint public game_stake = 1000000; // default stake\r\n\r\n  address payable public player; //holds address of the player\r\n\r\n  modifier costs(uint cost){\r\n      require(msg.value >= cost);\r\n      _;\r\n  }\r\n\r\n  function playGame() public payable costs(game_stake) returns (bool){\r\n    bool win;\r\n    uint winnings = game_stake *2;\r\n\r\n    player = msg.sender ;\r\n\r\n    // get win state\r\n    if (balance>= game_stake)win = getFlip();\r\n    else win=false;\r\n\r\n    // if win transfer winnings to player\r\n    if (win){\r\n      player.transfer(winnings);\r\n      balance -= game_stake;\r\n    }\r\n    else {\r\n        balance += game_stake;\r\n    }\r\n\r\n    return win;\r\n  }\r\n\r\n\r\n  // getter for game stake vavlue\r\n  function getStake() public view returns (uint){\r\n      return game_stake;\r\n  }\r\n\r\n  // setter for game stake vavlue\r\n  function setStake(uint newStake) public {\r\n      game_stake= newStake;\r\n  }\r\n\r\n  //empty balance to owner account\r\n  function withdrawAll() public payable onlyOwner returns(uint) {\r\n       uint toTransfer = balance;\r\n       balance = 0;\r\n       msg.sender.transfer(toTransfer);\r\n       return toTransfer;\r\n   }\r\n\r\n  // 50/50 chance will return bool of true or false\r\n  function getFlip() private view returns (bool) {\r\n   if (now % 2 == 1 ) return true;\r\n    else return false;\r\n  }\r\n}\r\n",
  "sourcePath": "C:\\Users\\kira.summers\\ethereum\\flip\\contracts\\flip.sol",
  "compiler": {
    "name": "solc",
    "version": "0.5.12+commit.7709ece9.Emscripten.clang"
  },
  "schemaVersion": "3.0.23",
  "updatedAt": "2020-05-24T09:52:27.798Z",
  "networkType": "ethereum",
  "devdoc": {
    "methods": {}
  },
  "userdoc": {
    "methods": {}
  }
}